{
  "contractName": "CryptoExchange",
  "abi": [
    {
      "inputs": [
        {
          "internalType": "contract DogToken",
          "name": "_dogToken",
          "type": "address"
        },
        {
          "internalType": "contract SheepToken",
          "name": "_sheepToken",
          "type": "address"
        },
        {
          "internalType": "contract PigToken",
          "name": "_pigToken",
          "type": "address"
        }
      ],
      "payable": false,
      "stateMutability": "nonpayable",
      "type": "constructor"
    },
    {
      "anonymous": false,
      "inputs": [
        {
          "indexed": false,
          "internalType": "address",
          "name": "account",
          "type": "address"
        },
        {
          "indexed": false,
          "internalType": "address",
          "name": "dogToken",
          "type": "address"
        },
        {
          "indexed": false,
          "internalType": "uint256",
          "name": "dogTokenAmount",
          "type": "uint256"
        },
        {
          "indexed": false,
          "internalType": "uint256",
          "name": "dogRate",
          "type": "uint256"
        }
      ],
      "name": "DogTokensPurchased",
      "type": "event"
    },
    {
      "anonymous": false,
      "inputs": [
        {
          "indexed": false,
          "internalType": "address",
          "name": "account",
          "type": "address"
        },
        {
          "indexed": false,
          "internalType": "address",
          "name": "dogToken",
          "type": "address"
        },
        {
          "indexed": false,
          "internalType": "uint256",
          "name": "dogTokenAmount",
          "type": "uint256"
        },
        {
          "indexed": false,
          "internalType": "uint256",
          "name": "dogRate",
          "type": "uint256"
        }
      ],
      "name": "DogTokensSold",
      "type": "event"
    },
    {
      "anonymous": false,
      "inputs": [
        {
          "indexed": false,
          "internalType": "address",
          "name": "account",
          "type": "address"
        },
        {
          "indexed": false,
          "internalType": "address",
          "name": "pigToken",
          "type": "address"
        },
        {
          "indexed": false,
          "internalType": "uint256",
          "name": "pigTokenAmount",
          "type": "uint256"
        },
        {
          "indexed": false,
          "internalType": "uint256",
          "name": "pigRate",
          "type": "uint256"
        }
      ],
      "name": "PigTokensPurchased",
      "type": "event"
    },
    {
      "anonymous": false,
      "inputs": [
        {
          "indexed": false,
          "internalType": "address",
          "name": "account",
          "type": "address"
        },
        {
          "indexed": false,
          "internalType": "address",
          "name": "pigToken",
          "type": "address"
        },
        {
          "indexed": false,
          "internalType": "uint256",
          "name": "piggTokenAmount",
          "type": "uint256"
        },
        {
          "indexed": false,
          "internalType": "uint256",
          "name": "pigRate",
          "type": "uint256"
        }
      ],
      "name": "PigTokensSold",
      "type": "event"
    },
    {
      "anonymous": false,
      "inputs": [
        {
          "indexed": false,
          "internalType": "address",
          "name": "account",
          "type": "address"
        },
        {
          "indexed": false,
          "internalType": "address",
          "name": "sheepToken",
          "type": "address"
        },
        {
          "indexed": false,
          "internalType": "uint256",
          "name": "sheepTokenAmount",
          "type": "uint256"
        },
        {
          "indexed": false,
          "internalType": "uint256",
          "name": "sheepRate",
          "type": "uint256"
        }
      ],
      "name": "SheepTokensPurchased",
      "type": "event"
    },
    {
      "anonymous": false,
      "inputs": [
        {
          "indexed": false,
          "internalType": "address",
          "name": "account",
          "type": "address"
        },
        {
          "indexed": false,
          "internalType": "address",
          "name": "sheepToken",
          "type": "address"
        },
        {
          "indexed": false,
          "internalType": "uint256",
          "name": "sheepTokenAmount",
          "type": "uint256"
        },
        {
          "indexed": false,
          "internalType": "uint256",
          "name": "sheepRate",
          "type": "uint256"
        }
      ],
      "name": "SheepTokensSold",
      "type": "event"
    },
    {
      "constant": true,
      "inputs": [],
      "name": "dogRate",
      "outputs": [
        {
          "internalType": "uint256",
          "name": "",
          "type": "uint256"
        }
      ],
      "payable": false,
      "stateMutability": "view",
      "type": "function"
    },
    {
      "constant": true,
      "inputs": [],
      "name": "dogToken",
      "outputs": [
        {
          "internalType": "contract DogToken",
          "name": "",
          "type": "address"
        }
      ],
      "payable": false,
      "stateMutability": "view",
      "type": "function"
    },
    {
      "constant": true,
      "inputs": [],
      "name": "name",
      "outputs": [
        {
          "internalType": "string",
          "name": "",
          "type": "string"
        }
      ],
      "payable": false,
      "stateMutability": "view",
      "type": "function"
    },
    {
      "constant": true,
      "inputs": [],
      "name": "pigRate",
      "outputs": [
        {
          "internalType": "uint256",
          "name": "",
          "type": "uint256"
        }
      ],
      "payable": false,
      "stateMutability": "view",
      "type": "function"
    },
    {
      "constant": true,
      "inputs": [],
      "name": "pigToken",
      "outputs": [
        {
          "internalType": "contract PigToken",
          "name": "",
          "type": "address"
        }
      ],
      "payable": false,
      "stateMutability": "view",
      "type": "function"
    },
    {
      "constant": true,
      "inputs": [],
      "name": "sheepRate",
      "outputs": [
        {
          "internalType": "uint256",
          "name": "",
          "type": "uint256"
        }
      ],
      "payable": false,
      "stateMutability": "view",
      "type": "function"
    },
    {
      "constant": true,
      "inputs": [],
      "name": "sheepToken",
      "outputs": [
        {
          "internalType": "contract SheepToken",
          "name": "",
          "type": "address"
        }
      ],
      "payable": false,
      "stateMutability": "view",
      "type": "function"
    },
    {
      "constant": false,
      "inputs": [],
      "name": "buyDogTokens",
      "outputs": [],
      "payable": true,
      "stateMutability": "payable",
      "type": "function"
    },
    {
      "constant": false,
      "inputs": [],
      "name": "buySheepTokens",
      "outputs": [],
      "payable": true,
      "stateMutability": "payable",
      "type": "function"
    },
    {
      "constant": false,
      "inputs": [],
      "name": "buyPigTokens",
      "outputs": [],
      "payable": true,
      "stateMutability": "payable",
      "type": "function"
    },
    {
      "constant": false,
      "inputs": [
        {
          "internalType": "uint256",
          "name": "_amount",
          "type": "uint256"
        }
      ],
      "name": "sellDogTokens",
      "outputs": [],
      "payable": false,
      "stateMutability": "nonpayable",
      "type": "function"
    },
    {
      "constant": false,
      "inputs": [
        {
          "internalType": "uint256",
          "name": "_amount",
          "type": "uint256"
        }
      ],
      "name": "sellSheepTokens",
      "outputs": [],
      "payable": false,
      "stateMutability": "nonpayable",
      "type": "function"
    },
    {
      "constant": false,
      "inputs": [
        {
          "internalType": "uint256",
          "name": "_amount",
          "type": "uint256"
        }
      ],
      "name": "sellPigTokens",
      "outputs": [],
      "payable": false,
      "stateMutability": "nonpayable",
      "type": "function"
    }
  ],
  "bytecode": "0x60806040526040518060400160405280600f81526020017f43727970746f2045786368616e67650000000000000000000000000000000000815250600090805190602001906200005192919062000186565b506103e86004556064600555600a6006553480156200006f57600080fd5b5060405162001bf738038062001bf7833981810160405260608110156200009557600080fd5b8101908080519060200190929190805190602001909291908051906020019092919050505082600160006101000a81548173ffffffffffffffffffffffffffffffffffffffff021916908373ffffffffffffffffffffffffffffffffffffffff16021790555081600260006101000a81548173ffffffffffffffffffffffffffffffffffffffff021916908373ffffffffffffffffffffffffffffffffffffffff16021790555080600360006101000a81548173ffffffffffffffffffffffffffffffffffffffff021916908373ffffffffffffffffffffffffffffffffffffffff16021790555050505062000235565b828054600181600116156101000203166002900490600052602060002090601f016020900481019282601f10620001c957805160ff1916838001178555620001fa565b82800160010185558215620001fa579182015b82811115620001f9578251825591602001919060010190620001dc565b5b5090506200020991906200020d565b5090565b6200023291905b808211156200022e57600081600090555060010162000214565b5090565b90565b6119b280620002456000396000f3fe6080604052600436106100c15760003560e01c806366cefe491161007f578063cd002ff811610059578063cd002ff8146102cf578063e49d77ec1461030a578063e5f7528614610335578063efff687d14610370576100c1565b806366cefe49146101f6578063b5244e8a1461024d578063bb7193b1146102a4576100c1565b80624cec2a146100c657806306fdde03146100d057806312683565146101605780631ae9a1e61461016a57806343b502c81461019557806363cd4994146101ec575b600080fd5b6100ce6103ab565b005b3480156100dc57600080fd5b506100e5610699565b6040518080602001828103825283818151815260200191508051906020019080838360005b8381101561012557808201518184015260208101905061010a565b50505050905090810190601f1680156101525780820380516001836020036101000a031916815260200191505b509250505060405180910390f35b610168610737565b005b34801561017657600080fd5b5061017f610a25565b6040518082815260200191505060405180910390f35b3480156101a157600080fd5b506101aa610a2b565b604051808273ffffffffffffffffffffffffffffffffffffffff1673ffffffffffffffffffffffffffffffffffffffff16815260200191505060405180910390f35b6101f4610a51565b005b34801561020257600080fd5b5061020b610d3f565b604051808273ffffffffffffffffffffffffffffffffffffffff1673ffffffffffffffffffffffffffffffffffffffff16815260200191505060405180910390f35b34801561025957600080fd5b50610262610d65565b604051808273ffffffffffffffffffffffffffffffffffffffff1673ffffffffffffffffffffffffffffffffffffffff16815260200191505060405180910390f35b3480156102b057600080fd5b506102b9610d8b565b6040518082815260200191505060405180910390f35b3480156102db57600080fd5b50610308600480360360208110156102f257600080fd5b8101908080359060200190929190505050610d91565b005b34801561031657600080fd5b5061031f611126565b6040518082815260200191505060405180910390f35b34801561034157600080fd5b5061036e6004803603602081101561035857600080fd5b810190808035906020019092919050505061112c565b005b34801561037c57600080fd5b506103a96004803603602081101561039357600080fd5b81019080803590602001909291905050506114c1565b005b60006005543402905080600260009054906101000a900473ffffffffffffffffffffffffffffffffffffffff1673ffffffffffffffffffffffffffffffffffffffff166370a08231306040518263ffffffff1660e01b8152600401808273ffffffffffffffffffffffffffffffffffffffff1673ffffffffffffffffffffffffffffffffffffffff16815260200191505060206040518083038186803b15801561045457600080fd5b505afa158015610468573d6000803e3d6000fd5b505050506040513d602081101561047e57600080fd5b810190808051906020019092919050505010156104e6576040517f08c379a00000000000000000000000000000000000000000000000000000000081526004018080602001828103825260398152602001806119456039913960400191505060405180910390fd5b600260009054906101000a900473ffffffffffffffffffffffffffffffffffffffff1673ffffffffffffffffffffffffffffffffffffffff1663a9059cbb33836040518363ffffffff1660e01b8152600401808373ffffffffffffffffffffffffffffffffffffffff1673ffffffffffffffffffffffffffffffffffffffff16815260200182815260200192505050602060405180830381600087803b15801561058f57600080fd5b505af11580156105a3573d6000803e3d6000fd5b505050506040513d60208110156105b957600080fd5b8101908080519060200190929190505050507f683dd35b0d5384063444b4bccdcb257047ecbaf41cb04ab7dfc7d9917ece652533600260009054906101000a900473ffffffffffffffffffffffffffffffffffffffff1683600554604051808573ffffffffffffffffffffffffffffffffffffffff1673ffffffffffffffffffffffffffffffffffffffff1681526020018473ffffffffffffffffffffffffffffffffffffffff1673ffffffffffffffffffffffffffffffffffffffff16815260200183815260200182815260200194505050505060405180910390a150565b60008054600181600116156101000203166002900480601f01602080910402602001604051908101604052809291908181526020018280546001816001161561010002031660029004801561072f5780601f106107045761010080835404028352916020019161072f565b820191906000526020600020905b81548152906001019060200180831161071257829003601f168201915b505050505081565b60006004543402905080600160009054906101000a900473ffffffffffffffffffffffffffffffffffffffff1673ffffffffffffffffffffffffffffffffffffffff166370a08231306040518263ffffffff1660e01b8152600401808273ffffffffffffffffffffffffffffffffffffffff1673ffffffffffffffffffffffffffffffffffffffff16815260200191505060206040518083038186803b1580156107e057600080fd5b505afa1580156107f4573d6000803e3d6000fd5b505050506040513d602081101561080a57600080fd5b81019080805190602001909291905050501015610872576040517f08c379a00000000000000000000000000000000000000000000000000000000081526004018080602001828103825260378152602001806118ab6037913960400191505060405180910390fd5b600160009054906101000a900473ffffffffffffffffffffffffffffffffffffffff1673ffffffffffffffffffffffffffffffffffffffff1663a9059cbb33836040518363ffffffff1660e01b8152600401808373ffffffffffffffffffffffffffffffffffffffff1673ffffffffffffffffffffffffffffffffffffffff16815260200182815260200192505050602060405180830381600087803b15801561091b57600080fd5b505af115801561092f573d6000803e3d6000fd5b505050506040513d602081101561094557600080fd5b8101908080519060200190929190505050507f6be3dbadaa5458f2d58858fff63750721a19b86a8f1181c02b195ba012b2b0e333600160009054906101000a900473ffffffffffffffffffffffffffffffffffffffff1683600454604051808573ffffffffffffffffffffffffffffffffffffffff1673ffffffffffffffffffffffffffffffffffffffff1681526020018473ffffffffffffffffffffffffffffffffffffffff1673ffffffffffffffffffffffffffffffffffffffff16815260200183815260200182815260200194505050505060405180910390a150565b60055481565b600160009054906101000a900473ffffffffffffffffffffffffffffffffffffffff1681565b60006006543402905080600360009054906101000a900473ffffffffffffffffffffffffffffffffffffffff1673ffffffffffffffffffffffffffffffffffffffff166370a08231306040518263ffffffff1660e01b8152600401808273ffffffffffffffffffffffffffffffffffffffff1673ffffffffffffffffffffffffffffffffffffffff16815260200191505060206040518083038186803b158015610afa57600080fd5b505afa158015610b0e573d6000803e3d6000fd5b505050506040513d6020811015610b2457600080fd5b81019080805190602001909291905050501015610b8c576040517f08c379a00000000000000000000000000000000000000000000000000000000081526004018080602001828103825260378152602001806118e26037913960400191505060405180910390fd5b600360009054906101000a900473ffffffffffffffffffffffffffffffffffffffff1673ffffffffffffffffffffffffffffffffffffffff1663a9059cbb33836040518363ffffffff1660e01b8152600401808373ffffffffffffffffffffffffffffffffffffffff1673ffffffffffffffffffffffffffffffffffffffff16815260200182815260200192505050602060405180830381600087803b158015610c3557600080fd5b505af1158015610c49573d6000803e3d6000fd5b505050506040513d6020811015610c5f57600080fd5b8101908080519060200190929190505050507faeaa36276f3e0bbe57e9f686a5d8675567dff35eb4de1862a86db19253d781c533600360009054906101000a900473ffffffffffffffffffffffffffffffffffffffff1683600654604051808573ffffffffffffffffffffffffffffffffffffffff1673ffffffffffffffffffffffffffffffffffffffff1681526020018473ffffffffffffffffffffffffffffffffffffffff1673ffffffffffffffffffffffffffffffffffffffff16815260200183815260200182815260200194505050505060405180910390a150565b600360009054906101000a900473ffffffffffffffffffffffffffffffffffffffff1681565b600260009054906101000a900473ffffffffffffffffffffffffffffffffffffffff1681565b60065481565b80600260009054906101000a900473ffffffffffffffffffffffffffffffffffffffff1673ffffffffffffffffffffffffffffffffffffffff166370a08231336040518263ffffffff1660e01b8152600401808273ffffffffffffffffffffffffffffffffffffffff1673ffffffffffffffffffffffffffffffffffffffff16815260200191505060206040518083038186803b158015610e3157600080fd5b505afa158015610e45573d6000803e3d6000fd5b505050506040513d6020811015610e5b57600080fd5b81019080805190602001909291905050501015610ec3576040517f08c379a000000000000000000000000000000000000000000000000000000000815260040180806020018281038252602c815260200180611919602c913960400191505060405180910390fd5b60006005548281610ed057fe5b049050803073ffffffffffffffffffffffffffffffffffffffff16311015610ef757600080fd5b600260009054906101000a900473ffffffffffffffffffffffffffffffffffffffff1673ffffffffffffffffffffffffffffffffffffffff166323b872dd3330856040518463ffffffff1660e01b8152600401808473ffffffffffffffffffffffffffffffffffffffff1673ffffffffffffffffffffffffffffffffffffffff1681526020018373ffffffffffffffffffffffffffffffffffffffff1673ffffffffffffffffffffffffffffffffffffffff1681526020018281526020019350505050602060405180830381600087803b158015610fd457600080fd5b505af1158015610fe8573d6000803e3d6000fd5b505050506040513d6020811015610ffe57600080fd5b8101908080519060200190929190505050503373ffffffffffffffffffffffffffffffffffffffff166108fc829081150290604051600060405180830381858888f19350505050158015611056573d6000803e3d6000fd5b507f99f791644e90972f7eaaa3d93b6fa90dd8b5b0c067903933546b8121dce3f1c433600260009054906101000a900473ffffffffffffffffffffffffffffffffffffffff1684600554604051808573ffffffffffffffffffffffffffffffffffffffff1673ffffffffffffffffffffffffffffffffffffffff1681526020018473ffffffffffffffffffffffffffffffffffffffff1673ffffffffffffffffffffffffffffffffffffffff16815260200183815260200182815260200194505050505060405180910390a15050565b60045481565b80600360009054906101000a900473ffffffffffffffffffffffffffffffffffffffff1673ffffffffffffffffffffffffffffffffffffffff166370a08231336040518263ffffffff1660e01b8152600401808273ffffffffffffffffffffffffffffffffffffffff1673ffffffffffffffffffffffffffffffffffffffff16815260200191505060206040518083038186803b1580156111cc57600080fd5b505afa1580156111e0573d6000803e3d6000fd5b505050506040513d60208110156111f657600080fd5b8101908080519060200190929190505050101561125e576040517f08c379a000000000000000000000000000000000000000000000000000000000815260040180806020018281038252602a815260200180611857602a913960400191505060405180910390fd5b6000600654828161126b57fe5b049050803073ffffffffffffffffffffffffffffffffffffffff1631101561129257600080fd5b600360009054906101000a900473ffffffffffffffffffffffffffffffffffffffff1673ffffffffffffffffffffffffffffffffffffffff166323b872dd3330856040518463ffffffff1660e01b8152600401808473ffffffffffffffffffffffffffffffffffffffff1673ffffffffffffffffffffffffffffffffffffffff1681526020018373ffffffffffffffffffffffffffffffffffffffff1673ffffffffffffffffffffffffffffffffffffffff1681526020018281526020019350505050602060405180830381600087803b15801561136f57600080fd5b505af1158015611383573d6000803e3d6000fd5b505050506040513d602081101561139957600080fd5b8101908080519060200190929190505050503373ffffffffffffffffffffffffffffffffffffffff166108fc829081150290604051600060405180830381858888f193505050501580156113f1573d6000803e3d6000fd5b507f675a06f2f2b29384b930ab6b3ef34aaa60f6aabab111d77a54e0de8bd520805833600360009054906101000a900473ffffffffffffffffffffffffffffffffffffffff1684600654604051808573ffffffffffffffffffffffffffffffffffffffff1673ffffffffffffffffffffffffffffffffffffffff1681526020018473ffffffffffffffffffffffffffffffffffffffff1673ffffffffffffffffffffffffffffffffffffffff16815260200183815260200182815260200194505050505060405180910390a15050565b80600160009054906101000a900473ffffffffffffffffffffffffffffffffffffffff1673ffffffffffffffffffffffffffffffffffffffff166370a08231336040518263ffffffff1660e01b8152600401808273ffffffffffffffffffffffffffffffffffffffff1673ffffffffffffffffffffffffffffffffffffffff16815260200191505060206040518083038186803b15801561156157600080fd5b505afa158015611575573d6000803e3d6000fd5b505050506040513d602081101561158b57600080fd5b810190808051906020019092919050505010156115f3576040517f08c379a000000000000000000000000000000000000000000000000000000000815260040180806020018281038252602a815260200180611881602a913960400191505060405180910390fd5b6000600454828161160057fe5b049050803073ffffffffffffffffffffffffffffffffffffffff1631101561162757600080fd5b600160009054906101000a900473ffffffffffffffffffffffffffffffffffffffff1673ffffffffffffffffffffffffffffffffffffffff166323b872dd3330856040518463ffffffff1660e01b8152600401808473ffffffffffffffffffffffffffffffffffffffff1673ffffffffffffffffffffffffffffffffffffffff1681526020018373ffffffffffffffffffffffffffffffffffffffff1673ffffffffffffffffffffffffffffffffffffffff1681526020018281526020019350505050602060405180830381600087803b15801561170457600080fd5b505af1158015611718573d6000803e3d6000fd5b505050506040513d602081101561172e57600080fd5b8101908080519060200190929190505050503373ffffffffffffffffffffffffffffffffffffffff166108fc829081150290604051600060405180830381858888f19350505050158015611786573d6000803e3d6000fd5b507f61d96ff1a281742f4d293b96779c045d3acb2995e52898188bbc019ca26661df33600160009054906101000a900473ffffffffffffffffffffffffffffffffffffffff1684600454604051808573ffffffffffffffffffffffffffffffffffffffff1673ffffffffffffffffffffffffffffffffffffffff1681526020018473ffffffffffffffffffffffffffffffffffffffff1673ffffffffffffffffffffffffffffffffffffffff16815260200183815260200182815260200194505050505060405180910390a1505056fe596f7520646f6e2774206861766520656e6f7567682050696720546f6b656e732063757272656e746c79596f7520646f6e2774206861766520656e6f75676820446f6720546f6b656e732063757272656e746c794e6f7420656e6f75676820446f6720546f6b656e732070726573656e742063757272656e746c7920696e207468652065786368616e67654e6f7420656e6f7567682050696720546f6b656e732070726573656e742063757272656e746c7920696e207468652065786368616e6765596f7520646f6e2774206861766520656e6f75676820536865657020546f6b656e732063757272656e746c794e6f7420656e6f75676820536865657020546f6b656e732070726573656e742063757272656e746c7920696e207468652065786368616e6765a265627a7a72315820c43746f245df310e6200232ddfe60f18a44143ea51ec56a8ab34aae76f97183f64736f6c63430005100032",
  "source": "pragma solidity ^0.5.0;\n\nimport './DogToken.sol';\nimport './SheepToken.sol';\nimport './PigToken.sol';\n\ncontract CryptoExchange {\n\n\tstring public name = \"Crypto Exchange\";\n\tDogToken public dogToken;\n\tSheepToken public sheepToken;\n\tPigToken public pigToken;\n\tuint public dogRate = 1000;\n\tuint public sheepRate = 100;\n\tuint public pigRate = 10;\n\n\n\tevent DogTokensPurchased(\n\t\taddress account,\n\t\taddress dogToken,\n\t\tuint dogTokenAmount,\n\t\tuint dogRate\n\t);\n\n\tevent SheepTokensPurchased(\n\t\taddress account,\n\t\taddress sheepToken,\n\t\tuint sheepTokenAmount,\n\t\tuint sheepRate\n\t);\n\n\n\tevent PigTokensPurchased(\n\t\taddress account,\n\t\taddress pigToken,\n\t\tuint pigTokenAmount,\n\t\tuint pigRate\n\t);\n\n\tevent DogTokensSold(\n\t\taddress account,\n\t\taddress dogToken,\n\t\tuint dogTokenAmount,\n\t\tuint dogRate\n\t);\n\n\tevent SheepTokensSold(\n\t\taddress account,\n\t\taddress sheepToken,\n\t\tuint sheepTokenAmount,\n\t\tuint sheepRate\n\t);\n\n\tevent PigTokensSold(\n\t\taddress account,\n\t\taddress pigToken,\n\t\tuint piggTokenAmount,\n\t\tuint pigRate\n\t);\n\n\tconstructor(DogToken _dogToken,SheepToken _sheepToken,PigToken _pigToken) public {\n\t\tdogToken = _dogToken;\n\t\tsheepToken = _sheepToken;\n\t\tpigToken = _pigToken;\n\t}\n\n\tfunction buyDogTokens() public payable {\n\t\tuint dogTokenAmount = msg.value*dogRate;\n\t\trequire(dogToken.balanceOf(address(this)) >= dogTokenAmount, \"Not enough Dog Tokens present currently in the exchange\");\n\t\tdogToken.transfer(msg.sender, dogTokenAmount);\n\t\temit DogTokensPurchased(msg.sender, address(dogToken), dogTokenAmount, dogRate);\n\t}\n\n\tfunction buySheepTokens() public payable {\n\t\tuint sheepTokenAmount = msg.value*sheepRate;\n\t\trequire(sheepToken.balanceOf(address(this)) >= sheepTokenAmount, \"Not enough Sheep Tokens present currently in the exchange\");\n\t\tsheepToken.transfer(msg.sender, sheepTokenAmount);\n\t\temit SheepTokensPurchased(msg.sender, address(sheepToken), sheepTokenAmount, sheepRate);\n\t}\n\n\n\tfunction buyPigTokens() public payable {\n\t\tuint pigTokenAmount = msg.value*pigRate;\n\t\trequire(pigToken.balanceOf(address(this)) >= pigTokenAmount, \"Not enough Pig Tokens present currently in the exchange\");\n\t\tpigToken.transfer(msg.sender, pigTokenAmount);\n\t\temit PigTokensPurchased(msg.sender, address(pigToken), pigTokenAmount, pigRate);\n\t}\n\n\tfunction sellDogTokens(uint _amount) public {\n\t\trequire(dogToken.balanceOf(msg.sender) >= _amount, \"You don't have enough Dog Tokens currently\");\n\t\tuint etherAmount = _amount/dogRate;\n\t\trequire(address(this).balance >= etherAmount);\n\t\tdogToken.transferFrom(msg.sender, address(this), _amount);\n\t\tmsg.sender.transfer(etherAmount);\n\t\temit DogTokensSold(msg.sender, address(dogToken), _amount, dogRate);\n\t}\n\n\tfunction sellSheepTokens(uint _amount) public {\n\t\trequire(sheepToken.balanceOf(msg.sender) >= _amount, \"You don't have enough Sheep Tokens currently\");\n\t\tuint etherAmount = _amount/sheepRate;\n\t\trequire(address(this).balance >= etherAmount);\n\t\tsheepToken.transferFrom(msg.sender, address(this), _amount);\n\t\tmsg.sender.transfer(etherAmount);\n\t\temit SheepTokensSold(msg.sender, address(sheepToken), _amount, sheepRate);\t\t\n\t}\n\n\tfunction sellPigTokens(uint _amount) public {\n\t\trequire(pigToken.balanceOf(msg.sender) >= _amount, \"You don't have enough Pig Tokens currently\");\n\t\tuint etherAmount = _amount/pigRate;\n\t\trequire(address(this).balance >= etherAmount);\n\t\tpigToken.transferFrom(msg.sender, address(this), _amount);\n\t\tmsg.sender.transfer(etherAmount);\n\t\temit PigTokensSold(msg.sender, address(pigToken), _amount, pigRate);\t\t\t\n\t}\t\n\n}",
  "sourcePath": "/home/yashasvi_yc7/Documents/Ethereum/Crypto-Exchange/src/contracts/CryptoExchange.sol",
  "compiler": {
    "name": "solc",
    "version": "0.5.16+commit.9c3226ce.Emscripten.clang"
  },
  "schemaVersion": "3.0.23",
  "updatedAt": "2020-03-26T09:59:32.224Z",
  "networkType": "ethereum",
  "devdoc": {
    "methods": {}
  },
  "userdoc": {
    "methods": {}
  }
}